{
    "_format": "hh-sol-artifact-1",
    "contractName": "WavePortal",
    "sourceName": "contracts/WavePortal.sol",
    "abi": [
        {
            "inputs": [],
            "stateMutability": "nonpayable",
            "type": "constructor"
        },
        {
            "anonymous": false,
            "inputs": [
                {
                    "indexed": true,
                    "internalType": "address",
                    "name": "from",
                    "type": "address"
                },
                {
                    "indexed": false,
                    "internalType": "uint256",
                    "name": "timestamp",
                    "type": "uint256"
                },
                {
                    "indexed": false,
                    "internalType": "string",
                    "name": "message",
                    "type": "string"
                }
            ],
            "name": "NewWave",
            "type": "event"
        },
        {
            "inputs": [],
            "name": "getAddresses",
            "outputs": [],
            "stateMutability": "view",
            "type": "function"
        },
        {
            "inputs": [],
            "name": "getAllWaves",
            "outputs": [
                {
                    "components": [
                        {
                            "internalType": "address",
                            "name": "waver",
                            "type": "address"
                        },
                        {
                            "internalType": "string",
                            "name": "message",
                            "type": "string"
                        },
                        {
                            "internalType": "uint256",
                            "name": "timestamp",
                            "type": "uint256"
                        }
                    ],
                    "internalType": "struct WavePortal.Wave[]",
                    "name": "",
                    "type": "tuple[]"
                }
            ],
            "stateMutability": "view",
            "type": "function"
        },
        {
            "inputs": [],
            "name": "getTotalWaves",
            "outputs": [
                {
                    "internalType": "uint256",
                    "name": "",
                    "type": "uint256"
                }
            ],
            "stateMutability": "view",
            "type": "function"
        },
        {
            "inputs": [
                {
                    "internalType": "string",
                    "name": "_message",
                    "type": "string"
                }
            ],
            "name": "wave",
            "outputs": [],
            "stateMutability": "nonpayable",
            "type": "function"
        }
    ],
    "bytecode": "0x60806040523480156200001157600080fd5b506200005d6040518060400160405280601581526020017f596f20796f2c20676d20746f20746865206368617400000000000000000000008152506200006360201b620004be1760201c565b620001f7565b62000103816040516024016200007a919062000170565b6040516020818303038152906040527f41304fac000000000000000000000000000000000000000000000000000000007bffffffffffffffffffffffffffffffffffffffffffffffffffffffff19166020820180517bffffffffffffffffffffffffffffffffffffffffffffffffffffffff83818316178352505050506200010660201b60201c565b50565b60008151905060006a636f6e736f6c652e6c6f679050602083016000808483855afa5050505050565b60006200013c8262000194565b6200014881856200019f565b93506200015a818560208601620001b0565b6200016581620001e6565b840191505092915050565b600060208201905081810360008301526200018c81846200012f565b905092915050565b600081519050919050565b600082825260208201905092915050565b60005b83811015620001d0578082015181840152602081019050620001b3565b83811115620001e0576000848401525b50505050565b6000601f19601f8301169050919050565b610db080620002076000396000f3fe608060405234801561001057600080fd5b506004361061004c5760003560e01c8063449d46c0146100515780639a2cdc081461006d578063a39fac121461008b578063bd43a90814610095575b600080fd5b61006b600480360381019061006691906107c3565b6100b3565b005b61007561022a565b6040516100829190610a2f565b60405180910390f35b610093610275565b005b61009d61036d565b6040516100aa919061098b565b60405180910390f35b60016000808282546100c59190610b36565b9250508190555061010b6040518060400160405280600c81526020017f257320686173207761766564000000000000000000000000000000000000000081525033610557565b600160405180606001604052803373ffffffffffffffffffffffffffffffffffffffff16815260200183815260200142815250908060018154018082558091505060019003906000526020600020906003020160009091909190915060008201518160000160006101000a81548173ffffffffffffffffffffffffffffffffffffffff021916908373ffffffffffffffffffffffffffffffffffffffff16021790555060208201518160010190805190602001906101ca9291906106b8565b506040820151816002015550503373ffffffffffffffffffffffffffffffffffffffff167f5f7e16dc676677766a70e9c5628aa6c54ddb8b6e5188e2ae1e1f17f1ffbea716428360405161021f929190610a4a565b60405180910390a250565b600061026d6040518060400160405280601781526020017f5765206861766520256420746f74616c207761766573210000000000000000008152506000546105f3565b600054905090565b600060018054905090506102a1604051806060016040528060268152602001610d5560269139826105f3565b60005b81811015610369576103566040518060400160405280600d81526020017f25732068617320776176656421000000000000000000000000000000000000008152506001838154811061031f577f4e487b7100000000000000000000000000000000000000000000000000000000600052603260045260246000fd5b906000526020600020906003020160000160009054906101000a900473ffffffffffffffffffffffffffffffffffffffff16610557565b808061036190610c6d565b9150506102a4565b5050565b60606001805480602002602001604051908101604052809291908181526020016000905b828210156104b557838290600052602060002090600302016040518060600160405290816000820160009054906101000a900473ffffffffffffffffffffffffffffffffffffffff1673ffffffffffffffffffffffffffffffffffffffff1673ffffffffffffffffffffffffffffffffffffffff16815260200160018201805461041a90610c0a565b80601f016020809104026020016040519081016040528092919081815260200182805461044690610c0a565b80156104935780601f1061046857610100808354040283529160200191610493565b820191906000526020600020905b81548152906001019060200180831161047657829003601f168201915b5050505050815260200160028201548152505081526020019060010190610391565b50505050905090565b610554816040516024016104d291906109ad565b6040516020818303038152906040527f41304fac000000000000000000000000000000000000000000000000000000007bffffffffffffffffffffffffffffffffffffffffffffffffffffffff19166020820180517bffffffffffffffffffffffffffffffffffffffffffffffffffffffff838183161783525050505061068f565b50565b6105ef828260405160240161056d9291906109cf565b6040516020818303038152906040527f319af333000000000000000000000000000000000000000000000000000000007bffffffffffffffffffffffffffffffffffffffffffffffffffffffff19166020820180517bffffffffffffffffffffffffffffffffffffffffffffffffffffffff838183161783525050505061068f565b5050565b61068b82826040516024016106099291906109ff565b6040516020818303038152906040527f9710a9d0000000000000000000000000000000000000000000000000000000007bffffffffffffffffffffffffffffffffffffffffffffffffffffffff19166020820180517bffffffffffffffffffffffffffffffffffffffffffffffffffffffff838183161783525050505061068f565b5050565b60008151905060006a636f6e736f6c652e6c6f679050602083016000808483855afa5050505050565b8280546106c490610c0a565b90600052602060002090601f0160209004810192826106e6576000855561072d565b82601f106106ff57805160ff191683800117855561072d565b8280016001018555821561072d579182015b8281111561072c578251825591602001919060010190610711565b5b50905061073a919061073e565b5090565b5b8082111561075757600081600090555060010161073f565b5090565b600061076e61076984610a9f565b610a7a565b90508281526020810184848401111561078657600080fd5b610791848285610bc8565b509392505050565b600082601f8301126107aa57600080fd5b81356107ba84826020860161075b565b91505092915050565b6000602082840312156107d557600080fd5b600082013567ffffffffffffffff8111156107ef57600080fd5b6107fb84828501610799565b91505092915050565b6000610810838361091d565b905092915050565b61082181610b8c565b82525050565b61083081610b8c565b82525050565b600061084182610ae0565b61084b8185610b03565b93508360208202850161085d85610ad0565b8060005b85811015610899578484038952815161087a8582610804565b945061088583610af6565b925060208a01995050600181019050610861565b50829750879550505050505092915050565b60006108b682610aeb565b6108c08185610b14565b93506108d0818560208601610bd7565b6108d981610d43565b840191505092915050565b60006108ef82610aeb565b6108f98185610b25565b9350610909818560208601610bd7565b61091281610d43565b840191505092915050565b60006060830160008301516109356000860182610818565b506020830151848203602086015261094d82826108ab565b9150506040830151610962604086018261096d565b508091505092915050565b61097681610bbe565b82525050565b61098581610bbe565b82525050565b600060208201905081810360008301526109a58184610836565b905092915050565b600060208201905081810360008301526109c781846108e4565b905092915050565b600060408201905081810360008301526109e981856108e4565b90506109f86020830184610827565b9392505050565b60006040820190508181036000830152610a1981856108e4565b9050610a28602083018461097c565b9392505050565b6000602082019050610a44600083018461097c565b92915050565b6000604082019050610a5f600083018561097c565b8181036020830152610a7181846108e4565b90509392505050565b6000610a84610a95565b9050610a908282610c3c565b919050565b6000604051905090565b600067ffffffffffffffff821115610aba57610ab9610d14565b5b610ac382610d43565b9050602081019050919050565b6000819050602082019050919050565b600081519050919050565b600081519050919050565b6000602082019050919050565b600082825260208201905092915050565b600082825260208201905092915050565b600082825260208201905092915050565b6000610b4182610bbe565b9150610b4c83610bbe565b9250827fffffffffffffffffffffffffffffffffffffffffffffffffffffffffffffffff03821115610b8157610b80610cb6565b5b828201905092915050565b6000610b9782610b9e565b9050919050565b600073ffffffffffffffffffffffffffffffffffffffff82169050919050565b6000819050919050565b82818337600083830152505050565b60005b83811015610bf5578082015181840152602081019050610bda565b83811115610c04576000848401525b50505050565b60006002820490506001821680610c2257607f821691505b60208210811415610c3657610c35610ce5565b5b50919050565b610c4582610d43565b810181811067ffffffffffffffff82111715610c6457610c63610d14565b5b80604052505050565b6000610c7882610bbe565b91507fffffffffffffffffffffffffffffffffffffffffffffffffffffffffffffffff821415610cab57610caa610cb6565b5b600182019050919050565b7f4e487b7100000000000000000000000000000000000000000000000000000000600052601160045260246000fd5b7f4e487b7100000000000000000000000000000000000000000000000000000000600052602260045260246000fd5b7f4e487b7100000000000000000000000000000000000000000000000000000000600052604160045260246000fd5b6000601f19601f830116905091905056fe5468657265206172652025642061646472657373657320746861742068617665207761766564a264697066735822122094ce495816f389383c243833cf2a984181868fab211a6129d71e0a0a9a6f575964736f6c63430008040033",
    "linkReferences": {},
    "deployedLinkReferences": {}
}