{
    "_format": "hh-sol-artifact-1",
    "contractName": "WavePortal",
    "sourceName": "contracts/WavePortal.sol",
    "abi": [
        {
            "inputs": [],
            "stateMutability": "nonpayable",
            "type": "constructor"
        },
        {
            "inputs": [],
            "name": "getAddresses",
            "outputs": [],
            "stateMutability": "view",
            "type": "function"
        },
        {
            "inputs": [],
            "name": "getTotalWaves",
            "outputs": [
                {
                    "internalType": "uint256",
                    "name": "",
                    "type": "uint256"
                }
            ],
            "stateMutability": "view",
            "type": "function"
        },
        {
            "inputs": [],
            "name": "wave",
            "outputs": [],
            "stateMutability": "nonpayable",
            "type": "function"
        }
    ],
    "bytecode": "0x608060405234801561001057600080fd5b506100596040518060400160405280601581526020017f596f20796f2c20676d20746f207468652063686174000000000000000000000081525061005e60201b6102711760201c565b6101e1565b6100fa81604051602401610072919061015f565b6040516020818303038152906040527f41304fac000000000000000000000000000000000000000000000000000000007bffffffffffffffffffffffffffffffffffffffffffffffffffffffff19166020820180517bffffffffffffffffffffffffffffffffffffffffffffffffffffffff83818316178352505050506100fd60201b60201c565b50565b60008151905060006a636f6e736f6c652e6c6f679050602083016000808483855afa5050505050565b600061013182610181565b61013b818561018c565b935061014b81856020860161019d565b610154816101d0565b840191505092915050565b600060208201905081810360008301526101798184610126565b905092915050565b600081519050919050565b600082825260208201905092915050565b60005b838110156101bb5780820151818401526020810190506101a0565b838111156101ca576000848401525b50505050565b6000601f19601f8301169050919050565b610725806101f06000396000f3fe608060405234801561001057600080fd5b50600436106100415760003560e01c80636fe15b44146100465780639a2cdc0814610050578063a39fac121461006e575b600080fd5b61004e610078565b005b610058610135565b6040516100659190610544565b60405180910390f35b610076610180565b005b600160008082825461008a919061057b565b925050819055506001339080600181540180825580915050600190039060005260206000200160009091909190916101000a81548173ffffffffffffffffffffffffffffffffffffffff021916908373ffffffffffffffffffffffffffffffffffffffff1602179055506101336040518060400160405280600c81526020017f25732068617320776176656400000000000000000000000000000000000000008152503361030a565b565b60006101786040518060400160405280601781526020017f5765206861766520256420746f74616c207761766573210000000000000000008152506000546103a6565b600054905090565b600060018054905090506101ac6040518060600160405280602681526020016106ca60269139826103a6565b60005b8181101561026d5761025a6040518060400160405280600d81526020017f25732068617320776176656421000000000000000000000000000000000000008152506001838154811061022a577f4e487b7100000000000000000000000000000000000000000000000000000000600052603260045260246000fd5b9060005260206000200160009054906101000a900473ffffffffffffffffffffffffffffffffffffffff1661030a565b808061026590610640565b9150506101af565b5050565b6103078160405160240161028591906104c2565b6040516020818303038152906040527f41304fac000000000000000000000000000000000000000000000000000000007bffffffffffffffffffffffffffffffffffffffffffffffffffffffff19166020820180517bffffffffffffffffffffffffffffffffffffffffffffffffffffffff8381831617835250505050610442565b50565b6103a282826040516024016103209291906104e4565b6040516020818303038152906040527f319af333000000000000000000000000000000000000000000000000000000007bffffffffffffffffffffffffffffffffffffffffffffffffffffffff19166020820180517bffffffffffffffffffffffffffffffffffffffffffffffffffffffff8381831617835250505050610442565b5050565b61043e82826040516024016103bc929190610514565b6040516020818303038152906040527f9710a9d0000000000000000000000000000000000000000000000000000000007bffffffffffffffffffffffffffffffffffffffffffffffffffffffff19166020820180517bffffffffffffffffffffffffffffffffffffffffffffffffffffffff8381831617835250505050610442565b5050565b60008151905060006a636f6e736f6c652e6c6f679050602083016000808483855afa5050505050565b610474816105d1565b82525050565b60006104858261055f565b61048f818561056a565b935061049f81856020860161060d565b6104a8816106b8565b840191505092915050565b6104bc81610603565b82525050565b600060208201905081810360008301526104dc818461047a565b905092915050565b600060408201905081810360008301526104fe818561047a565b905061050d602083018461046b565b9392505050565b6000604082019050818103600083015261052e818561047a565b905061053d60208301846104b3565b9392505050565b600060208201905061055960008301846104b3565b92915050565b600081519050919050565b600082825260208201905092915050565b600061058682610603565b915061059183610603565b9250827fffffffffffffffffffffffffffffffffffffffffffffffffffffffffffffffff038211156105c6576105c5610689565b5b828201905092915050565b60006105dc826105e3565b9050919050565b600073ffffffffffffffffffffffffffffffffffffffff82169050919050565b6000819050919050565b60005b8381101561062b578082015181840152602081019050610610565b8381111561063a576000848401525b50505050565b600061064b82610603565b91507fffffffffffffffffffffffffffffffffffffffffffffffffffffffffffffffff82141561067e5761067d610689565b5b600182019050919050565b7f4e487b7100000000000000000000000000000000000000000000000000000000600052601160045260246000fd5b6000601f19601f830116905091905056fe5468657265206172652025642061646472657373657320746861742068617665207761766564a2646970667358221220305216277fee5b63f653637656ed29e980257b6b87649a834ff38dc2723d7bd164736f6c63430008040033",
    "linkReferences": {},
    "deployedLinkReferences": {}
}